:020000040800F2
:10000000000005207D200008092000080D200008C0
:100010001120000815200008192000080000000029
:100020000000000000000000000000001D2000088B
:1000300021200008000000002520000829200008D9
:10004000CD200008CD200008CD200008CD200008DC
:10005000CD200008CD200008CD200008CD200008CC
:10006000CD200008CD200008CD200008CD200008BC
:10007000CD200008CD200008CD200008CD200008AC
:10008000CD200008CD200008CD200008CD2000089C
:10009000CD200008CD200008CD200008CD2000088C
:1000A000CD200008CD200008CD200008CD2000087C
:1000B000CD200008CD200008CD200008CD2000086C
:1000C000CD200008CD200008CD200008CD2000085C
:1000D000CD200008CD200008CD200008CD2000084C
:1000E000CD200008CD200008CD200008CD2000083C
:1000F000CD200008CD200008CD200008CD2000082C
:10010000CD200008CD200008CD200008CD2000081B
:10011000CD200008CD200008CD200008CD2000080B
:10012000CD200008CD200008CD200008CD200008FB
:10013000CD200008CD200008CD200008CD200008EB
:10014000CD200008CD200008CD200008CD200008DB
:10015000CD200008CD200008CD200008CD200008CB
:10016000CD200008CD200008CD200008CD200008BB
:10017000CD200008CD200008CD20000800000000A0
:10018000CD200008CD200008CD200008CD2000089B
:10019000CD200008CD200008CD200008CD2000088B
:1001A000CD200008CD200008CD200008CD2000087B
:1001B000CD200008CD200008CD200008CD2000086B
:0801C000CD200008CD2000084D
:1001C80010B5054C237833B9044B13B10448AFF389
:1001D80000800123237010BD0C00002000000000E7
:1001E8002821000808B5034B1BB103490348AFF3A6
:1001F800008008BD00000000100000202821000831
:1002080053B94AB9002908BF00281CBF4FF0FF3175
:100218004FF0FF3000F07AB9ADF1080C6DE904CE6B
:1002280000F006F8DDF804E0DDE9022304B07047C9
:100238002DE9F0478C460D460446089E002B51D107
:100248008A4217466DD9B2FA82FEBEF1000F0BD072
:10025800CEF1200C01FA0EF520FA0CFC02FA0EF78A
:100268004CEA050C00FA0EF44FEA174A250CBCFBC1
:10027800FAF81FFA87F90AFB18CC45EA0C4508FB7F
:1002880009F3AB420AD9ED1908F1FF3280F0238156
:10029800AB4240F22081A8F102083D44ED1AA4B215
:1002A800B5FBFAF00AFB105544EA054400FB09F9CE
:1002B800A14509D9E41900F1FF3380F00A81A1456D
:1002C80040F2078102383C44A4EB090440EA0840A4
:1002D8000021002E61D024FA0EF4002334607360EC
:1002E800BDE8F0878B4207D9002E54D0002186E85C
:1002F80021000846BDE8F087B3FA83F1002940F0F1
:100308008E80AB4202D3824200F2FA80841A65EBF7
:1003180003050120AC46002E3FD086E81010BDE84A
:10032800F08712B90127B7FBF2F7B7FA87FEBEF1DB
:10033800000F34D1EB1B3A0C1FFA87FC0121B3FBE9
:10034800F2F8250C02FB183345EA03450CFB08F3C9
:10035800AB4207D9ED1908F1FF3002D2AB4200F2E7
:10036800D1808046ED1AA3B2B5FBF2F002FB10551E
:1003780043EA05440CFB00FCA44507D9E41900F145
:10038800FF3302D2A44500F2B8801846A4EB0C044F
:1003980040EA08409DE731463046BDE8F087CEF197
:1003A800200405FA0EF307FA0EF720FA04F83A0CBF
:1003B80025FA04F448EA0308B4FBF2F14FEA1845B9
:1003C80002FB11441FFA87FC45EA044501FB0CF3C4
:1003D800AB4200FA0EF409D9ED1901F1FF3080F0B3
:1003E8008A80AB4240F2878002393D44EB1A1FFAFB
:1003F80088F5B3FBF2F002FB103345EA034500FB36
:100408000CF3AB4207D9ED1900F1FF386FD2AB42BC
:100418006DD902383D44EB1A40EA01418FE7C1F13A
:10042800200722FA07F88B4005FA01F448EA03038B
:1004380020FA07FE4FEA134CFD404EEA040EB5FBC6
:10044800FCF94FEA1E440CFB19551FFA83F844EADD
:10045800054509FB08F4AC4202FA01F200FA01FA78
:1004680008D9ED1809F1FF3043D2AC4241D9A9F1BE
:1004780002091D442D1B1FFA8EFEB5FBFCF00CFB78
:1004880010554EEA054400FB08F8A04507D9E418C2
:1004980000F1FF3529D2A04527D902381C4440EA8B
:1004A8000940A4EB0804A0FB02894C45C6464D460A
:1004B80015D312D056B1BAEB0E0364EB050404FA57
:1004C80007F7CB401F43CC40376074600021BDE87C
:1004D800F0871846F8E69046E0E6C245EAD2B8EB5F
:1004E800020E69EB03050138E4E72846D7E74046E2
:1004F80091E78146BEE7014678E702383C4445E784
:10050800084608E7A8F102083D442BE7704700BFFA
:100518000E4A4FF47A730E491278B3FBF2F310B512
:1005280004460868B0FBF3F000F094F858B90F2CB3
:1005380009D8002221464FF0FF3000F051F8054B52
:1005480000201C6010BD012010BD00BF000000206D
:10055800080000200400002008B5032000F02CF853
:100568000020FFF7D5FF01F093FC002008BD00BF75
:10057800034A044B11681B780B441360704700BF93
:1005880028FC032000000020014B1868704700BFBA
:1005980028FC032038B50446FFF7F6FF0546631C20
:1005A80002D0044B1B781C44FFF7EEFF401B84422B
:1005B800FAD838BD0000002007490002074BCA6876
:1005C80000F4E06010B44FF6FF0422405DF8044BDD
:1005D80013431843C860704700ED00E00000FA05B7
:1005E800194B70B4DC68C4F30224C4F10706231D58
:1005F800042E28BF0426062B19D9033C0125A54043
:10060800013D2A400123002803FA06F303F1FF33D2
:1006180001EA030101FA04F141EA02010ADB0901D6
:100628000A4BC9B2034483F8001370BC7047002218
:100638001446E7E700F00F000901054BC9B203446F
:10064800197670BC704700BF00ED00E000E100E0E3
:10065800FCEC00E00138B0F1807F0DD2074B00229E
:10066800072130B4F025064C5860104684F8235012
:100678009A60196030BC70470120704710E000E0B4
:1006880000ED00E0BFF35F8F044A00200449536A7D
:1006980023F4803353624860704700BF00ED00E0E8
:1006A80090ED00E0064A40F00100064B5860536A9E
:1006B80043F480335362BFF34F8FBFF36F8F70479C
:1006C80000ED00E090ED00E0F0B4134943788B6052
:1006D80004781CB9CC600C61F0BC70474368CB60EF
:1006E800C27A057B1206837A477B42EA0572867BCB
:1006F800C57B2243447A007A42EAC34343EA8743EC
:1007080043EA464343EA054343EA042343EA4003F2
:10071800F0BC0B61704700BF90ED00E02DE9F04F91
:10072800D1F800C083B00025DFF82C82DFF82CE276
:1007380003E00135102D00F0BF800123AB4003EA30
:100748000C029342F5D14E6826F01009B9F1020F58
:1007580040F0B5804FEAD50905F0070A4FF00F0BB6
:100768000C6900EB89094FEA8A0AD9F820700BFA5C
:100778000AFB04FA0AF44FEA450A27EA0B074FF086
:10078800030B3C430BFA0AFB06F00307C9F82040A9
:100798006FEA0B04D0F8009007FA0AF709EA04098F
:1007A80047EA090707608768C6F3001907EA040BD8
:1007B800CF6809FA05F907FA0AF747EA0B078760CD
:1007C800476827EA030349EA03034360C7688B685D
:1007D8003C4003FA0AF32343C360F300A9D5D8F8D1
:1007E800444025F0030705F003034FF00F0944F4D4
:1007F800804407F180479B00C8F8444007F59C37C0
:10080800D8F8444009FA03F904F480440194019C9F
:10081800BC6824EA090A4B4CA04269D004F58064FC
:10082800A04267D0484CA04269D0484CA0426BD047
:10083800474CA0426DD0474CA0426FD0DFF82091C2
:10084800484570D0DFF81C91484571D0DFF8189101
:10085800484572D0DFF8149148450CBF4FF009099C
:100868004FF00A0909FA03F343EA0A03D4430135AE
:10087800BB60F703DEF8003054BF23401343B703CF
:10088800CEF80030DEF8043054BF23401343F7029B
:10089800CEF80430DEF8083054BF23401343B602C4
:1008A800CEF80830DEF80C3054BF23401343102D27
:1008B800CEF80C307FF441AF03B0BDE8F08F4FEABB
:1008C800450A0324D0F800B009F1FF3906EA040705
:1008D80004FA0AF4B9F1010F6FEA040407FA0AF7F7
:1008E8000BEA040B47EA0B0707603FF66FAF5AE7BE
:1008F8000023B9E74FF0010909FA03F3B4E74FF011
:10090800020909FA03F3AFE74FF0030909FA03F301
:10091800AAE74FF0040909FA03F3A5E74FF0050920
:1009280009FA03F3A0E74FF0060909FA03F39BE776
:100938004FF0070909FA03F396E74FF0080909FA97
:1009480003F391E70000024000080240000C024057
:10095800001002400014024000380240003C0140F0
:1009680000180240001C02400020024000240240FF
:1009780002B9090481617047D2014FF0000C2DE9DA
:10098800F04F843204684868E768A318D1F800E09B
:100998005E68C7F30B47D1F80C900EF1010807EB1E
:1009A800000A06F470478D680E695F600135E768D4
:1009B800D1F818B0C7F30B474744D1F8148047EA79
:1009C8000A475F60D4F80CA09F68CAF30A0A07F4C4
:1009D8007047D1449F60E768C7F30A0A2C4F554413
:1009E80045EA09459D601D6925F007051D611E61E1
:1009F8009D6991F831A091F83290C3F818C091F828
:100A0800305045EA0B6545EA0A2545EA09459D61E6
:100A18005D6925F0FF055D61C3F81480DD692F402D
:100A280001F11C05DF6195E8A0013D43DD619D6A88
:100A3800C3F828C0C3F8288026B3012E24D0B51ED9
:100A4800022D23D9072E21D00127A0EB0E008E6A94
:100A5800DD6A07FB00F0D1F82CE006FB07F605F08D
:100A6800E02503300B49DD6240EA0640D862186B86
:100A780001401963C3F830E0A35843F00103A350C1
:100A8800BDE8F08F0427E0E70327DEE70227DCE76D
:100A9800F8F8FFFF00F8FFFF002871D0F8B590F8CC
:100AA800A130044603F0FF02002B64D0236802261D
:100AB800A06801256268002184F8A160E768024304
:100AC800986926693A4320F07040D4F814E032431C
:100AD800D4F818C0986198692A4F024308469A6169
:100AE8009A683A409A609E6846EA0E46D4F81CE036
:100AF80046EA0C06D4F820C09E60DE683E40DE6000
:100B0800DA6842EA0E42D4F824E042EA0C02D4F849
:100B180028C0DA601A693A401A611E6946EA0E4628
:100B2800D4F82CE046EA0C061E615E6937405F6126
:100B38005A69266B42EA0E4232435A61DE6A94F8D9
:100B480035E006F07F4694F83670DE62DE6A94F887
:100B58003420324342EA0E2242EA0742DA625A6BF2
:100B680042F006025A639A692A439A61C4F8A410AB
:100B780084F8A150F8BD80F8A02001F0A1F995E70C
:100B88000120704700F800F090F8A030012B01D147
:100B9800022070472DE9F04134244FF00108022368
:100BA8000D4604FB0204064680F8A080964680F8AD
:100BB800A1300F4638340FCD0FC40FCD0FC40FCD61
:100BC8000FC42B687246304639462360FFF7D4FEBF
:100BD800002332681846C2F8248086F8A18086F877
:100BE800A030BDE8F08100BFF8B590F8A050012D05
:100BF80001D10220F8BD342301270D46022103FB51
:100C080002F3044680F8A070C618383380F8A110A3
:100C1800C118F565FFF7B0FE002322681846576231
:100C280084F8A17084F8A030F8BD00BF1B4A1C4BA3
:100C3800116C41F0805130B5116483B0126C1C46C0
:100C480002F080520192019A1A6842F480321A60C6
:100C5800FFF79AFC054605E0FFF796FC401BB0F548
:100C68007A7F17D86368DA03F6D523680C4D43F406
:100C780000332360FFF788FC044605E0FFF784FC97
:100C8800001BB0F57A7F05D86B689B03F6D500206A
:100C980003B030BD032003B030BD00BF00380240B0
:100CA80000700040002800F0CF8103682DE9F04172
:100CB800DD0782B0044630D5AA498A6802F00C02E2
:100CC800042A00F019818A6802F00C02082A00F050
:100CD8000F816368B3F5803F00F05281002B00F06C
:100CE800DB80B3F5A02F9F4B1A6800F0A58122F492
:100CF80080321A601A6822F480221A60FFF744FCD6
:100D0800984D064605E0FFF73FFC801B642800F27B
:100D1800EB802B689A03F6D523689F0729D5914A5B
:100D2800916811F00C0F00F08280916801F00C01BD
:100D3800082979D0E368002B00F00981894B1A68EB
:100D48001D4642F001021A60FFF71EFC064605E048
:100D5800FFF71AFC801B022800F2C6802B68980750
:100D6800F6D52B68226923F0F80343EAC2032B6007
:100D780023681A071FD45D0736D57A4B1A6CD00042
:100D880073D50025784B1A68D10540F19C80A3687B
:100D9800012B00F0FB80002B00F0B880052B714B75
:100DA8001A6F00F00C8122F001021A671A6F22F004
:100DB80004021A67EFE06369002B43D0694B5A6F4E
:100DC8001D4642F001025A67FFF7DEFB064605E0C2
:100DD800FFF7DAFB801B022800F286806B6F9B0707
:100DE800F6D523685D07C8D4A269CAB15D4B996876
:100DF80001F00C01082921D0022A1A6800F0E780C6
:100E080022F080721C461A60FFF7BEFB054604E01C
:100E1800FFF7BAFB401B022866D823689B01F7D46A
:100E2800002002B0BDE8F0815268560282D44D4AD3
:100E38001268950724D5E268012A21D0012002B062
:100E4800BDE8F081474B5A6F1D4622F001025A67F0
:100E5800FFF79AFB064604E0FFF796FB801B022883
:100E680042D86B6F9F07F7D4BBE71A6C012542F095
:100E780080521A641B6C03F080530193019B81E735
:100E8800384920690A6822F0F80242EAC0020A607A
:100E98001A077FF570AF8EE7324B1A681D4622F4A9
:100EA80080321A601A6822F480221A60FFF76CFBFD
:100EB800064604E0FFF768FB801B642814D82B68FB
:100EC8009B03F7D428E71A681E4642F480721A601A
:100ED800FFF75AFB07463368DA053FF558AFFFF7C7
:100EE80053FBC01B6428F6D9032002B0BDE8F0818B
:100EF8004A6850027FF5EDAE1A4A126891037FF5F1
:100F08000CAF6268002A7FF408AF97E7154B41F2EF
:100F180088381A6F1E4622F001021A671A6F22F0EB
:100F280004021A67FFF730FB074604E0FFF72CFBC3
:100F3800C01B4045D8D8336F9807F7D4002D3FF42D
:100F480053AF084A136C23F0805313644CE7054BE6
:100F58001A681D4622F001021A60FFF715FB0646C3
:100F680009E000BF0038024000700040FFF70CFBAA
:100F7800801B0228B8D82B689907F7D42368F8E6AD
:100F8800324A136843F480331360B7E62F4A136F6D
:100F980043F001031367FFF7F7FA2C4E804641F23E
:100FA800883705E0FFF7F0FAA0EB0800B8429BD8B5
:100FB800336F9B07F6D5002D3FF416AFC1E742F01B
:100FC80004021A671A6F42F001021A67E3E722F077
:100FD80080721D461A60FFF7D7FA064605E0FFF74C
:100FE800D3FA801B02283FF67FAF2B689901F6D40D
:100FF800226AE369606A1343A26AE16A43F0005314
:101008005208124C43EA8013013A43EA016343EA67
:1010180002436B602B6843F080732B60FFF7B4FAD0
:10102800054605E0FFF7B0FA401B02283FF65CAF23
:1010380023689A01F6D5F3E642F480221A601A680A
:1010480042F480321A6059E60120704700380240A5
:10105800164908B58B6803F00C03042B1BD0082B2A
:1010680017D14A684B6802F03F02496813F48003BD
:1010780013D10F48C1F38811A1FB0001FFF7C0F895
:101088000A4B5B68C3F3014301335B00B0FBF3F029
:1010980008BD074808BD074808BD0648C1F38811C0
:1010A8000023A1FB0001FFF7ABF8E9E70038024095
:1010B8000024F40040787D0178B14A4A136803F0AF
:1010C8000F038B420BD2136823F00F030B431360FB
:1010D800136803F00F03994201D001207047036899
:1010E8002DE9F0419D0714D55C0704D53E4CA26854
:1010F80042F4E052A2601A0704D53B4CA26842F4BD
:101108006042A260384C8568A26822F0F0022A4347
:10111800A260DF0704460D4621D54268324B012AFA
:101128001B685BD0022A53D0990728D52E4941F273
:1011380088388B680E4623F0030313438B60FFF750
:1011480023FA074604E0FFF71FFAC01B404542D8C0
:10115800B368626803F00C03B3EB820FF3D1214A42
:10116800136803F00F039D420CD2136823F00F039A
:101178002B431360136803F00F039D4202D0012034
:10118800BDE8F08123685A0706D51749E0688A68E0
:1011980022F4E05202438A601B0707D5124A2169EC
:1011A800936823F4604343EAC1039360FFF750FF59
:1011B8000D4B0E499B680E4AC3F30313CB5C20FA10
:1011C80003F300201360FFF7A3F90020BDE8F081C6
:1011D8009801ABD4D3E70320BDE8F0819E03A5D4E2
:1011E800CDE700BF003C0240003802404021000823
:1011F8000800002003682DE9F04313F0010683B0CE
:1012080004460BD0B84A916821F400019160466BFE
:1012180091683143B6FA86F67609916013F4002591
:1012280010D0B149E56BD1F88C20B5F5801F22F4B8
:10123800401242EA0502C1F88C2000F0A181B5FAFB
:1012480085F56D09D90210D5A748216CD0F88C20F6
:10125800B1F5800F22F4400242EA0102C0F88C2066
:1012680000F08C81002908BF012513F0807F18BF8A
:1012780001269A0600F13A81D9060CD59A4AD2F885
:101288008C1021F08071C2F88C10D2F88C10A06BF1
:101298000143C2F88C105A0408D59349606ED1F8FE
:1012A800902022F440320243C1F890201F0408D550
:1012B8008D49A06ED1F8902022F440220243C1F853
:1012C8009020D80308D58849E06ED1F8902022F400
:1012D80040120243C1F89020990308D58249206F33
:1012E800D1F8902022F440020243C1F890205A0617
:1012F80008D57D49606CD1F8902022F003020243A2
:10130800C1F890201F0608D57749A06CD1F8902025
:1013180022F00C020243C1F89020D80508D5724982
:10132800E06CD1F8902022F030020243C1F89020FE
:10133800990508D56C49206DD1F8902022F0C0029B
:101348000243C1F890205A0508D56749606DD1F865
:10135800902022F440720243C1F890201F0508D55E
:101368006149A06DD1F8902022F440620243C1F88F
:101378009020D80408D55C49E06DD1F8902022F47B
:1013880040520243C1F89020990408D55649206E6E
:10139800D1F8902022F440420243C1F890205A022A
:1013A80008D55149A06FD1F8902022F080620243FD
:1013B800C1F890209F020CD54B49E06FD1F89020DE
:1013C800B0F1006F22F0006208BF01250243C1F8A6
:1013D800902013F0080F18BF0125580308D542497B
:1013E800606FD1F8902022F040720243C1F890203B
:1013F80019020BD4B3F1007F16D0F20714D4012DD3
:1014080000F0C180002003B0BDE8F0833649B3F195
:10141800007FD4F88000D1F8902022F0805242EA70
:101428000002C1F89020E8D12F4B1A681E4622F01E
:1014380080621A60FFF7A8F8074604E0FFF7A4F8EF
:10144800C01B64284CD833681B01F7D42368DF0716
:1014580003D5626B002A00F000811E0304D5E26BFD
:10146800B2F5801F00F02481D80204D5226CB2F5B1
:10147800800F00F01D81D90111D51B4E6068D6F888
:101488008420D6F8847002F07062216907F0E04782
:101498003A4342EA801242EA0142C6F884209A019D
:1014A8000DD5236962681B04E068A16843EA8213CA
:1014B8000D4A43EA006343EA0173C2F884300A4BD9
:1014C8001A681E4642F080621A60FFF75DF8074608
:1014D80033681B0193D4FFF757F8C01B6428F7D96A
:1014E800032003B0BDE8F083003802408C4A8D4BDE
:1014F800116C1F4641F080511164126C02F0805249
:101508000192019A1A6842F480721A60FFF73CF857
:10151800804605E0FFF738F8A0EB08006428DFD81C
:101528003B68DB05F6D57E4A236B116F03F44070E8
:1015380011F4407111D081420FD0116F176F21F44F
:10154800407147F480371767176F27F4803717679C
:101558001167116FCF0700F19680B0F5407F00F05A
:10156800C3806F498A6822F4F8128A606C4AC3F310
:101578000B03116F0B43136723687DE6012674E69E
:10158800002501265EE6664B1A681D4622F0805249
:101598001A60FEF7F9FF064604E0FEF7F5FF801B28
:1015A80064289DD82B689F00F7D423681D0366D450
:1015B800D8021DD5226CDAB959496569D1F8882055
:1015C800D1F8886002F44032A06906F0E046324360
:1015D80042EA851242EA0062C1F88820D1F88C20DC
:1015E800A06A22F4F852013842EA0022C1F88C209D
:1015F800990203D5E26FB2F1006F7ED01A0719D5B0
:10160800474A6569D2F88810D2F8883001F07061CD
:10161800E06903F440330B4343EA851343EA00735C
:10162800C2F88830D2F88C30E16A23F440330B4397
:10163800C2F88C303A4B1A681C4642F080521A6045
:10164800FEF7A2FF054623689B003FF5DBAEFEF7D9
:101658009BFF401B6428F6D942E7D6F88420D6F8C9
:10166800847002F44032606807F07067A1683A43FA
:1016780042EA801242EA0172C6F88420EDE6E26B83
:10168800002A99D094E7174641F28838FEF77CFF84
:10169800814606E0FEF778FFA0EB090040453FF6DB
:1016A8001FAF3B6F9807F5D5236B03F4407054E7E1
:1016B8001B4E6068D6F88420D6F8847002F4403255
:1016C800E16807F0E0473A4342EA801242EA0162E1
:1016D800C6F88420D6F88C10626A21F01F01013AFE
:1016E8000A43C6F88C20C6E60D480F49826819409F
:1016F80022F4F8120A43826038E709496569D1F88B
:101708008820D1F8886002F07062206A06F0E0460E
:10171800324342EA851242EA0042C1F888206DE766
:101728000038024000700040FFFCFF0FF8B5044687
:10173800012063792071834204D00423A36000232D
:101748002371F8BD02230E466371FEF71DFF07469D
:1017580004E0FEF719FFC01B02280BD82268556861
:1017680015F00105F5D0936801220020E36033608D
:101778006271E4E70120022325716071A360F8BD5E
:10178800B0B138B54379044603F0FF0263B121686C
:1017980002230022012563710B68104643F00403FD
:1017A8000B606571A26038BD027100F013FCEEE7B2
:1017B800012070470279012A0AD000F10C0110B506
:1017C8000446FFF7B3FF08B9E06810BD002010BD5C
:1017D80000207047074B5A6E196E01FB02F139B1B0
:1017E800DA6D80B20023013322F8020B9942FAD154
:1017F800704700BF2CFC03209042F0B5BDF8146080
:1018080002D8144602462046994202D81C460B4686
:1018180021468B4216D80C4D2C6EEF6D04FB032528
:101828004FEA440E07EB4507904206D33D4614465F
:10183800013425F8026B8442FAD9013377448B428C
:10184800F2D9F0BDF0BD00BF2CFC032010B4054C4C
:1018580092B2236EE46D03FB010124F811205DF8B8
:10186800044B70472CFC03202DE9F04F5D1A161A23
:1018780083B0002DBDF83070B8BF6D42002EB8BFE0
:101888007642B54250DC0C469C4696461346804646
:1018980001466246204699420BD8A346C246914665
:1018A80001936446F04602460B46DC46D646484657
:1018B8000199A4EB0C04A8EB0E0E002CF146B8BF5E
:1018C8006442BEF1000FB8BF0EF1010990424FEA21
:1018D800690924D94FF0010A1648D0F85C80006ED7
:1018E80008E00133B9EB040928F81B709BB20ED449
:1018F8008B4211D8B54200FB023C00FB032BF0DC05
:101908000133B9EB040928F81C709BB2F0D5524496
:101918008B42F14692B2EDD903B0BDE8F08F8B420D
:10192800FAD84FF0FF3AD7E7884604469E469446D1
:10193800B1E700BF2CFC0320F0B50024B5B030227D
:101948000225214607A800F0E3FB214613A88422BC
:101958000294012603944FF4803704940594069466
:1019680000F0D6FB234A4FF4800E234B07A8116CD6
:1019780041F0805111641921126C02F080520092DA
:10198800009A1A6842F440421A604FF4C8721B6801
:10199800CDF838E003F440430F9110920193019B76
:1019A800082308970F27129307960D951195FFF7AF
:1019B80079F9FFF73BF94FF4A0524FF4805302A88E
:1019C800062105920693039504940297FFF774FB8A
:1019D8000A49C0224FF0006313A81A9519951B965F
:1019E8001D961E94139118923293FFF703FC35B09D
:1019F800F0BD00BF00380240007000400800200021
:101A08002DE9F04F002497B0A44D0A9409940B9443
:101A18000C94FEF737FE01231121032209A88DF843
:101A280024308DF832308DF82C108DF82F208DF859
:101A380025408DF82D408DF82E408DF830408DF8DA
:101A480031408DF833400A95FEF73EFE0420FEF73C
:101A580029FEBFF34F8FBFF36F8F914BC3F85042EE
:101A6800BFF34F8FBFF36F8F5A6942F400325A6148
:101A7800BFF34F8FBFF36F8FC3F88440BFF34F8F0F
:101A8800D3F8802043F6E077C2F3C905C2F34E329B
:101A9800AE07520102EA070E3046294640EA0E0414
:101AA800013900F14040C3F860424C1CF6D1203A9D
:101AB80012F1200FEED1BFF34F8F5A6942F48032F2
:101AC8005A61BFF34F8FBFF36F8FFEF745FD0027B5
:101AD800FFF732FF734B099701220A9702260B97EB
:101AE80014460C9708210D971D6B6F4845F010059B
:101AF800DFF8D4811D631D6B05F010050295029D6A
:101B08001D6B15431D631D6B15400395039D1D6BD0
:101B180045F400751D631D6B05F400750495049D5F
:101B28001D6B45F480651D631D6B05F48065059587
:101B3800059D1D6B45F040051D631D6B05F04005B7
:101B48000695069D1D6B45F480751D631D6B05F498
:101B580080750795079D1D6B45F080051D631B6B00
:101B6800524D03F080030893089BFEF701FF3146AE
:101B78003A464F48FEF7FCFE22464FF480514C4847
:101B8800FEF7F6FE082309A9474809930A940C961C
:101B98000B97FEF7C3FD09A9454809960A940B97C8
:101BA8000C97FEF7BBFD4FF4805309A940480993F1
:101BB8000A940B240C960B97FEF7B0FD3946342295
:101BC80009A800F0A5FA3B482821092235232860F6
:101BD80040F215206961AA6140F21B1140F23522DA
:101BE800EB6140F21D13686228462C62A9624446E4
:101BF800EA622B636F60AF60EF602F6185F8347025
:101C080085F8357085F83670FEF746FF4FF4806228
:101C180005204FF0FF0E4FF488730D964FF4F076C1
:101C280009A9109211903A462846CDF838E00A964C
:101C380013960C93149309970B970F9712978DF897
:101C480054708DF855708DF85670FEF79DFF1A4B3D
:101C580040461A4EC8F80030FFF792FD28463A462B
:101C68001749FEF7C1FF3846164DFFF7B3FD642745
:101C7800013F2046FFF79EFDBFB280B2FFF7AAFDE5
:101C88006420FEF787FC002FF2D138464FF47A77AC
:101C9800FFF7A0FD3846FEF77DFC17E000000120A5
:101CA80000ED00E000380240002802402CFC032030
:101CB800002002400068014000080650F1F0F0F0F2
:101CC8002800002089888888D4FC03202046013F0A
:101CD800FFF770FD80462046BFB2FFF76BFD8146D7
:101CE8002046FFF767FD82462046FFF763FD8346DF
:101CF8002046FFF75FFDA6FB0B231FFA80FEA5FB1E
:101D08000A12A6FB09011B0AA5FB08C0120A090A48
:101D1800CDF800E0000A03EB0313C2EB021201EB5B
:101D28000111C0EB0010ABEB0313AAEB4212A9EBB5
:101D38000111A8EB40109BB292B289B280B2FFF7B2
:101D48005BFD0A20FEF726FC002FBFD1384642F281
:101D5800107AFFF73FFD4FF47A70FEF71BFC6427FB
:101D6800204607F1FF38FFF725FD814620461FFA78
:101D780088F7FFF71FFDA5FB0923A6FB00E100225A
:101D88001B0A090AC3EB031301EB0111A9EB431367
:101D9800A0EB011198B289B2FFF758FD002FDFD1EF
:101DA80020460AF1FF37FFF705FD804620461FFA57
:101DB80087FAFFF7FFFC81462046FFF7FBFCA6FBEE
:101DC8000931A5FB082382B2090A1B0A01EB01119C
:101DD800C3EB0313A9EB0111A8EB431389B298B223
:101DE800FFF734FD0120FEF7D5FBBAF1000FB6D19D
:101DF8004FF47A775046FFF7EDFC3846FEF7CAFBFA
:101E08002046013FFFF7D6FC80462046BFB2FFF7C9
:101E1800D1FC81462046FFF7CDFC82462046FFF7DD
:101E2800C9FC83462046FFF7C5FCA6FB0B231FFA17
:101E380080FEA5FB0A12A6FB09011B0AA5FB08C028
:101E4800120A090ACDF800E0000A03EB0313C2EBFB
:101E5800021201EB0111C0EB0010ABEB0313AAEB6C
:101E68004212A9EB0111A8EB40109BB292B289B2C1
:101E780080B2FFF7F9FC0A20FEF78CFB002FBFD1D8
:101E88003846FFF7A7FC4FF47A70FEF783FBEEE6BF
:101E98000A4B82B01A6C42F080521A641A6C02F033
:101EA80080520092009A5A6C42F480425A645B6CE9
:101EB80003F480430193019B02B07047003802404D
:101EC80002683E4BF0B59A428DB04FF0000408947A
:101ED800079409940A940B9401D00DB0F0BD03F552
:101EE8005043102702250E265A6C07A9344842F0A1
:101EF80080625A645A6C02F080620192019A1A6BED
:101F08003A431A631A6B3A400292029A1A6B42F4E5
:101F180000721A631A6B02F400720392039A1A6B26
:101F280042F480621A631A6B02F480620492049A83
:101F38001A6B42F040021A631A6B02F040020592D3
:101F4800059A1A6B42F480721A631B6B079703F4A5
:101F5800807308950693069B0A950B96FEF7DEFBA1
:101F68004EF6FF7307A91748079308950A950B962D
:101F78000994FEF7D3FBF72307A91348079308959D
:101F88000A950B960994FEF7C9FB4FF48052092372
:101F980007A90E4807920B9308950A950994FEF72E
:101FA800BDFB4FF4464307A909480B9608950A95C7
:101FB80009940793FEF7B2FB0DB0F0BD006801402D
:101FC800001002400024024000280240001802408D
:101FD800002002400268084B9A4200D07047074B25
:101FE80082B05A6B42F040025A635B6B03F04003C5
:101FF8000193019B02B07047000806500038024068
:10200800704700BFFEE700BFFEE700BFFEE700BF66
:10201800FEE700BF704700BF704700BF704700BFB2
:10202800FEF7A6BA0F4A104BD2F888000F4940F4C1
:10203800700070B4C2F88800002418684FF000657A
:102048000B4E40F0010018609C6018680140196050
:102058005E60196821F480211960DC60956070BCAD
:10206800704700BF00ED00E000380240FFFFF6FEB9
:1020780010300024DFF834D0002103E00C4B5B580B
:10208800435004310B480C4B42189A42F6D30B4A82
:1020980002E0002342F8043B094B9A42F9D3FFF7C8
:1020A800C1FF00F011F8FFF7ABFC704700000520F6
:1020B80060210008000000200C0000200C00002017
:1020C800E4FC0320FEE7000070B50D4E0D4CA41B88
:1020D800A4100025A54209D10B4E0C4C00F020F8A5
:1020E800A41BA4100025A54205D170BD56F82530C3
:1020F80098470135EEE756F8253098470135F2E75D
:102108005821000858210008582100085C210008BF
:1021180002440346934200D1704703F8011BF9E7D4
:10212800F8B500BFF8BC08BC9E467047F8B500BFBC
:08213800F8BC08BC9E4670478C
:102140000000000000000000010203040607080967
:08215000E8E0FF7F0100000040
:04215800ED0100088D
:04215C00C9010008AD
:0C21600001000000100000000024F4004A
:040000050800207D52
:00000001FF
